{
  "contractName": "MultiSig",
  "abi": [
    {
      "inputs": [],
      "name": "AA",
      "outputs": [
        {
          "internalType": "uint256",
          "name": "",
          "type": "uint256"
        }
      ],
      "stateMutability": "view",
      "type": "function"
    },
    {
      "inputs": [],
      "name": "BB",
      "outputs": [
        {
          "internalType": "uint256",
          "name": "",
          "type": "uint256"
        }
      ],
      "stateMutability": "view",
      "type": "function"
    },
    {
      "inputs": [],
      "name": "GX",
      "outputs": [
        {
          "internalType": "uint256",
          "name": "",
          "type": "uint256"
        }
      ],
      "stateMutability": "view",
      "type": "function"
    },
    {
      "inputs": [],
      "name": "GY",
      "outputs": [
        {
          "internalType": "uint256",
          "name": "",
          "type": "uint256"
        }
      ],
      "stateMutability": "view",
      "type": "function"
    },
    {
      "inputs": [],
      "name": "PP",
      "outputs": [
        {
          "internalType": "uint256",
          "name": "",
          "type": "uint256"
        }
      ],
      "stateMutability": "view",
      "type": "function"
    },
    {
      "inputs": [],
      "name": "QQ",
      "outputs": [
        {
          "internalType": "uint256",
          "name": "",
          "type": "uint256"
        }
      ],
      "stateMutability": "view",
      "type": "function"
    },
    {
      "inputs": [],
      "name": "counter",
      "outputs": [
        {
          "internalType": "uint256",
          "name": "",
          "type": "uint256"
        }
      ],
      "stateMutability": "view",
      "type": "function"
    },
    {
      "stateMutability": "payable",
      "type": "receive"
    },
    {
      "inputs": [
        {
          "internalType": "address",
          "name": "from",
          "type": "address"
        },
        {
          "internalType": "uint256",
          "name": "amount",
          "type": "uint256"
        },
        {
          "internalType": "address",
          "name": "to",
          "type": "address"
        },
        {
          "internalType": "uint256",
          "name": "pkx",
          "type": "uint256"
        },
        {
          "internalType": "uint256",
          "name": "pky",
          "type": "uint256"
        },
        {
          "internalType": "uint256",
          "name": "xx",
          "type": "uint256"
        },
        {
          "internalType": "uint256",
          "name": "xy",
          "type": "uint256"
        },
        {
          "internalType": "uint256",
          "name": "z",
          "type": "uint256"
        },
        {
          "internalType": "uint256",
          "name": "message",
          "type": "uint256"
        }
      ],
      "name": "pay",
      "outputs": [],
      "stateMutability": "nonpayable",
      "type": "function"
    },
    {
      "inputs": [
        {
          "internalType": "uint256",
          "name": "zBar",
          "type": "uint256"
        },
        {
          "components": [
            {
              "internalType": "uint256",
              "name": "x",
              "type": "uint256"
            },
            {
              "internalType": "uint256",
              "name": "y",
              "type": "uint256"
            }
          ],
          "internalType": "struct CommonStructs.Point",
          "name": "pkBar",
          "type": "tuple"
        },
        {
          "components": [
            {
              "internalType": "uint256",
              "name": "x",
              "type": "uint256"
            },
            {
              "internalType": "uint256",
              "name": "y",
              "type": "uint256"
            }
          ],
          "internalType": "struct CommonStructs.Point",
          "name": "xBar",
          "type": "tuple"
        },
        {
          "internalType": "bytes",
          "name": "message",
          "type": "bytes"
        }
      ],
      "name": "verify",
      "outputs": [
        {
          "internalType": "bool",
          "name": "",
          "type": "bool"
        }
      ],
      "stateMutability": "nonpayable",
      "type": "function"
    }
  ],
  "bytecode": "0x60806040525f8055348015610012575f80fd5b50611825806100205f395ff3fe608060405260043610610089575f3560e01c806361bc221a1161005857806361bc221a1461014c5780637a308a4c14610176578063997da8d4146101a05780639b51af9c146101ca578063eeeac01e146101f457610090565b806303a507be146100945780634e731d79146100be5780635727dc5c146100fa5780635ecbf3eb1461012457610090565b3661009057005b5f80fd5b34801561009f575f80fd5b506100a861021e565b6040516100b591906110b8565b60405180910390f35b3480156100c9575f80fd5b506100e460048036038101906100df9190611299565b610242565b6040516100f19190611333565b60405180910390f35b348015610105575f80fd5b5061010e6103da565b60405161011b91906110b8565b60405180910390f35b34801561012f575f80fd5b5061014a600480360381019061014591906113a6565b6103df565b005b348015610157575f80fd5b50610160610532565b60405161016d91906110b8565b60405180910390f35b348015610181575f80fd5b5061018a610537565b60405161019791906110b8565b60405180910390f35b3480156101ab575f80fd5b506101b461055b565b6040516101c191906110b8565b60405180910390f35b3480156101d5575f80fd5b506101de61055f565b6040516101eb91906110b8565b60405180910390f35b3480156101ff575f80fd5b50610208610583565b60405161021591906110b8565b60405180910390f35b7f79be667ef9dcbbac55a06295ce870b07029bfcdb2dce28d959f2815b16f8179881565b5f805f6102b2877f79be667ef9dcbbac55a06295ce870b07029bfcdb2dce28d959f2815b16f817987f483ada7726a3c4655da4fbfc0e1108a8fd17b448a68554199c47d08ffb10d4b85f7ffffffffffffffffffffffffffffffffffffffffffffffffffffffffefffffc2f6105a7565b915091505f865f01518760200151875f01518860200151886040516020016102de9594939291906114f6565b604051602081830303815290604052805190602001205f1c90505f8061032e838a5f01518b602001515f7ffffffffffffffffffffffffffffffffffffffffffffffffffffffffefffffc2f6105a7565b915091505f8061036984848c5f01518d602001515f7ffffffffffffffffffffffffffffffffffffffffffffffffffffffffefffffc2f6105de565b9150915080860361039a575f808154809291906103859061157d565b919050555060019750505050505050506103d2565b8187036103c7575f808154809291906103b29061157d565b919050555060019750505050505050506103d2565b5f9750505050505050505b949350505050565b600781565b5f816040516020016103f191906115c4565b60405160208183030381529060405290506104368360405180604001604052808a81526020018981525060405180604001604052808981526020018881525084610242565b15610526578773ffffffffffffffffffffffffffffffffffffffff166108fc8a90811502906040515f60405180830381858888f1935050505015801561047e573d5f803e3d5ffd5b508860015f8c73ffffffffffffffffffffffffffffffffffffffff1673ffffffffffffffffffffffffffffffffffffffff1681526020019081526020015f205f8282546104cb91906115de565b925050819055508860015f8a73ffffffffffffffffffffffffffffffffffffffff1673ffffffffffffffffffffffffffffffffffffffff1681526020019081526020015f205f82825461051e9190611611565b925050819055505b50505050505050505050565b5f5481565b7f483ada7726a3c4655da4fbfc0e1108a8fd17b448a68554199c47d08ffb10d4b881565b5f81565b7ffffffffffffffffffffffffffffffffebaaedce6af48a03bbfd25e8cd036414181565b7ffffffffffffffffffffffffffffffffffffffffffffffffffffffffefffffc2f81565b5f805f805f6105bb8a8a8a60018b8b61066c565b9250925092506105cd83838389610704565b945094505050509550959350505050565b5f805f805f888b0361062f575f86806105fa576105f9611644565b5b898c0803610610575f8094509450505050610661565b61061e8b8b60018a8a610776565b80935081945082955050505061064d565b6106408b8b60018c8c60018c61092d565b8093508194508295505050505b61065983838389610704565b945094505050505b965096945050505050565b5f805f808903610684578787879250925092506106f8565b5f8990505f805f600190505b5f84146106ea575f60018516146106bd576106b08383838f8f8f8e61092d565b8093508194508295505050505b6002846106ca9190611671565b93506106d98c8c8c8c8c610776565b809c50819d50829e50505050610690565b828282965096509650505050505b96509650969350505050565b5f805f6107118585610f98565b90505f848061072357610722611644565b5b82830990505f858061073857610737611644565b5b828a0990505f868061074d5761074c611644565b5b878061075c5761075b611644565b5b8486098a0990508181955095505050505094509492505050565b5f805f80860361078e57878787925092509250610922565b5f848061079e5761079d611644565b5b898a0990505f85806107b3576107b2611644565b5b898a0990505f86806107c8576107c7611644565b5b898a0990505f87806107dd576107dc611644565b5b88806107ec576107eb611644565b5b848e0960040990505f888061080457610803611644565b5b898061081357610812611644565b5b8a8061082257610821611644565b5b8586098c098a8061083657610835611644565b5b87600309089050888061084c5761084b611644565b5b898061085b5761085a611644565b5b8384088a61086991906115de565b8a8061087857610877611644565b5b838409089450888061088d5761088c611644565b5b898061089c5761089b611644565b5b8a806108ab576108aa611644565b5b8687096008098a6108bc91906115de565b8a806108cb576108ca611644565b5b8b806108da576108d9611644565b5b888d6108e691906115de565b8608840908935088806108fc576108fb611644565b5b898061090b5761090a611644565b5b8c8e09600209925084848497509750975050505050505b955095509592505050565b5f805f808a14801561093e57505f89145b1561095157868686925092509250610f8b565b5f8714801561095f57505f86145b1561097257898989925092509250610f8b565b61097a61107e565b848061098957610988611644565b5b898a09815f6004811061099f5761099e6116a1565b5b60200201818152505084806109b7576109b6611644565b5b815f600481106109ca576109c96116a1565b5b60200201518a09816001600481106109e5576109e46116a1565b5b60200201818152505084806109fd576109fc611644565b5b86870981600260048110610a1457610a136116a1565b5b6020020181815250508480610a2c57610a2b611644565b5b81600260048110610a4057610a3f6116a1565b5b6020020151870981600360048110610a5b57610a5a6116a1565b5b60200201818152505060405180608001604052808680610a7e57610a7d611644565b5b83600260048110610a9257610a916116a1565b5b60200201518e0981526020018680610aad57610aac611644565b5b83600360048110610ac157610ac06116a1565b5b60200201518d0981526020018680610adc57610adb611644565b5b835f60048110610aef57610aee6116a1565b5b60200201518b0981526020018680610b0a57610b09611644565b5b83600160048110610b1e57610b1d6116a1565b5b60200201518a09815250905080600260048110610b3e57610b3d6116a1565b5b6020020151815f60048110610b5657610b556116a1565b5b6020020151141580610b98575080600360048110610b7757610b766116a1565b5b602002015181600160048110610b9057610b8f6116a1565b5b602002015114155b610bd7576040517f08c379a0000000000000000000000000000000000000000000000000000000008152600401610bce90611728565b60405180910390fd5b610bdf61107e565b8580610bee57610bed611644565b5b825f60048110610c0157610c006116a1565b5b602002015187610c1191906115de565b83600260048110610c2557610c246116a1565b5b602002015108815f60048110610c3e57610c3d6116a1565b5b6020020181815250508580610c5657610c55611644565b5b82600160048110610c6a57610c696116a1565b5b602002015187610c7a91906115de565b83600360048110610c8e57610c8d6116a1565b5b60200201510881600160048110610ca857610ca76116a1565b5b6020020181815250508580610cc057610cbf611644565b5b815f60048110610cd357610cd26116a1565b5b6020020151825f60048110610ceb57610cea6116a1565b5b60200201510981600260048110610d0557610d046116a1565b5b6020020181815250508580610d1d57610d1c611644565b5b815f60048110610d3057610d2f6116a1565b5b602002015182600260048110610d4957610d486116a1565b5b60200201510981600360048110610d6357610d626116a1565b5b6020020181815250505f8680610d7c57610d7b611644565b5b82600360048110610d9057610d8f6116a1565b5b602002015188610da091906115de565b8880610daf57610dae611644565b5b84600160048110610dc357610dc26116a1565b5b602002015185600160048110610ddc57610ddb6116a1565b5b6020020151090890508680610df457610df3611644565b5b8780610e0357610e02611644565b5b8880610e1257610e11611644565b5b84600260048110610e2657610e256116a1565b5b6020020151865f60048110610e3e57610e3d6116a1565b5b60200201510960020988610e5291906115de565b820890505f8780610e6657610e65611644565b5b8880610e7557610e74611644565b5b838a610e8191906115de565b8a80610e9057610e8f611644565b5b86600260048110610ea457610ea36116a1565b5b6020020151885f60048110610ebc57610ebb6116a1565b5b6020020151090884600160048110610ed757610ed66116a1565b5b60200201510990508780610eee57610eed611644565b5b8880610efd57610efc611644565b5b84600360048110610f1157610f106116a1565b5b602002015186600160048110610f2a57610f296116a1565b5b60200201510989610f3b91906115de565b820890505f8880610f4f57610f4e611644565b5b8980610f5e57610f5d611644565b5b8b8f09855f60048110610f7457610f736116a1565b5b602002015109905082828297509750975050505050505b9750975097945050505050565b5f808314158015610fa95750818314155b8015610fb557505f8214155b610ff4576040517f08c379a0000000000000000000000000000000000000000000000000000000008152600401610feb90611790565b60405180910390fd5b5f80600190505f8490505f5b5f87146110715786826110139190611671565b905082868061102557611024611644565b5b878061103457611033611644565b5b8584098861104291906115de565b8608809450819550505086878261105991906117ae565b8361106491906115de565b8098508193505050611000565b8394505050505092915050565b6040518060800160405280600490602082028036833780820191505090505090565b5f819050919050565b6110b2816110a0565b82525050565b5f6020820190506110cb5f8301846110a9565b92915050565b5f604051905090565b5f80fd5b5f80fd5b6110eb816110a0565b81146110f5575f80fd5b50565b5f81359050611106816110e2565b92915050565b5f80fd5b5f601f19601f8301169050919050565b7f4e487b71000000000000000000000000000000000000000000000000000000005f52604160045260245ffd5b61115682611110565b810181811067ffffffffffffffff8211171561117557611174611120565b5b80604052505050565b5f6111876110d1565b9050611193828261114d565b919050565b5f604082840312156111ad576111ac61110c565b5b6111b7604061117e565b90505f6111c6848285016110f8565b5f8301525060206111d9848285016110f8565b60208301525092915050565b5f80fd5b5f80fd5b5f67ffffffffffffffff82111561120757611206611120565b5b61121082611110565b9050602081019050919050565b828183375f83830152505050565b5f61123d611238846111ed565b61117e565b905082815260208101848484011115611259576112586111e9565b5b61126484828561121d565b509392505050565b5f82601f8301126112805761127f6111e5565b5b813561129084826020860161122b565b91505092915050565b5f805f8060c085870312156112b1576112b06110da565b5b5f6112be878288016110f8565b94505060206112cf87828801611198565b93505060606112e087828801611198565b92505060a085013567ffffffffffffffff811115611301576113006110de565b5b61130d8782880161126c565b91505092959194509250565b5f8115159050919050565b61132d81611319565b82525050565b5f6020820190506113465f830184611324565b92915050565b5f73ffffffffffffffffffffffffffffffffffffffff82169050919050565b5f6113758261134c565b9050919050565b6113858161136b565b811461138f575f80fd5b50565b5f813590506113a08161137c565b92915050565b5f805f805f805f805f6101208a8c0312156113c4576113c36110da565b5b5f6113d18c828d01611392565b99505060206113e28c828d016110f8565b98505060406113f38c828d01611392565b97505060606114048c828d016110f8565b96505060806114158c828d016110f8565b95505060a06114268c828d016110f8565b94505060c06114378c828d016110f8565b93505060e06114488c828d016110f8565b92505061010061145a8c828d016110f8565b9150509295985092959850929598565b5f819050919050565b61148461147f826110a0565b61146a565b82525050565b5f81519050919050565b5f81905092915050565b5f5b838110156114bb5780820151818401526020810190506114a0565b5f8484015250505050565b5f6114d08261148a565b6114da8185611494565b93506114ea81856020860161149e565b80840191505092915050565b5f6115018288611473565b6020820191506115118287611473565b6020820191506115218286611473565b6020820191506115318285611473565b60208201915061154182846114c6565b91508190509695505050505050565b7f4e487b71000000000000000000000000000000000000000000000000000000005f52601160045260245ffd5b5f611587826110a0565b91507fffffffffffffffffffffffffffffffffffffffffffffffffffffffffffffffff82036115b9576115b8611550565b5b600182019050919050565b5f6115cf8284611473565b60208201915081905092915050565b5f6115e8826110a0565b91506115f3836110a0565b925082820390508181111561160b5761160a611550565b5b92915050565b5f61161b826110a0565b9150611626836110a0565b925082820190508082111561163e5761163d611550565b5b92915050565b7f4e487b71000000000000000000000000000000000000000000000000000000005f52601260045260245ffd5b5f61167b826110a0565b9150611686836110a0565b92508261169657611695611644565b5b828204905092915050565b7f4e487b71000000000000000000000000000000000000000000000000000000005f52603260045260245ffd5b5f82825260208201905092915050565b7f557365206a6163446f75626c652066756e6374696f6e20696e737465616400005f82015250565b5f611712601e836116ce565b915061171d826116de565b602082019050919050565b5f6020820190508181035f83015261173f81611706565b9050919050565b7f496e76616c6964206e756d6265720000000000000000000000000000000000005f82015250565b5f61177a600e836116ce565b915061178582611746565b602082019050919050565b5f6020820190508181035f8301526117a78161176e565b9050919050565b5f6117b8826110a0565b91506117c3836110a0565b92508282026117d1816110a0565b915082820484148315176117e8576117e7611550565b5b509291505056fea26469706673582212206205b4e68d173e085221da25debdb39f7f7e503687ffa2cf4be6f94edf942a2a64736f6c63430008150033",
  "immutableReferences": {},
  "source": "// SPDX-License-Identifier: GPL-3.0\r\n\r\npragma solidity >=0.8.2 <0.9.0; \r\n/*\r\n \r\n recieve pk as points\r\n */\r\nlibrary EllipticCurve {\r\n  uint256 constant private U255_MAX_PLUS_1 = 57896044618658097711785492504343953926634992332820282019728792003956564819968;\r\n\r\n  function invMod(uint256 _x, uint256 _pp) internal pure returns (uint256) {\r\n    require(_x != 0 && _x != _pp && _pp != 0, \"Invalid number\");\r\n    uint256 q = 0;\r\n    uint256 newT = 1;\r\n    uint256 r = _pp;\r\n    uint256 t;\r\n    while (_x != 0) {\r\n      t = r / _x;\r\n      (q, newT) = (newT, addmod(q, (_pp - mulmod(t, newT, _pp)), _pp));\r\n      (r, _x) = (_x, r - t * _x);\r\n    }\r\n\r\n    return q;\r\n  }\r\n\r\n  \r\n  function toAffine(uint256 _x, uint256 _y, uint256 _z, uint256 _pp) internal pure returns (uint256, uint256) {\r\n    uint256 zInv = invMod(_z, _pp);\r\n    uint256 zInv2 = mulmod(zInv, zInv, _pp);\r\n    uint256 x2 = mulmod(_x, zInv2, _pp);\r\n    uint256 y2 = mulmod(_y, mulmod(zInv, zInv2, _pp), _pp);\r\n\r\n    return (x2, y2);\r\n  }\r\n\r\n  function ecInv(uint256 _x, uint256 _y, uint256 _pp) internal pure returns (uint256, uint256) {\r\n    return (_x, (_pp - _y) % _pp);\r\n  }\r\n\r\n  function ecAdd(uint256 _x1, uint256 _y1, uint256 _x2, uint256 _y2, uint256 _aa, uint256 _pp) internal pure returns(uint256, uint256) {\r\n    uint x = 0;\r\n    uint y = 0;\r\n    uint z = 0;\r\n\r\n    // Double if x1==x2 else add\r\n    if (_x1==_x2) {\r\n      // y1 = -y2 mod p\r\n      if (addmod(_y1, _y2, _pp) == 0) {\r\n        return(0, 0);\r\n      } else {\r\n        // P1 = P2\r\n        (x, y, z) = jacDouble(_x1, _y1, 1, _aa, _pp);\r\n      }\r\n    } else {\r\n      (x, y, z) = jacAdd(_x1, _y1, 1, _x2, _y2, 1, _pp);\r\n    }\r\n    // Get back to affine\r\n    return toAffine(x, y, z, _pp);\r\n  }\r\n\r\n  function ecSub(uint256 _x1, uint256 _y1, uint256 _x2, uint256 _y2, uint256 _aa, uint256 _pp) internal pure returns(uint256, uint256) {\r\n    // invert square\r\n    (uint256 x, uint256 y) = ecInv(_x2, _y2, _pp);\r\n    // P1-square\r\n    return ecAdd(_x1, _y1, x, y, _aa, _pp);\r\n  }\r\n\r\n\r\n  function ecMul(uint256 _k, uint256 _x, uint256 _y, uint256 _aa, uint256 _pp) internal pure returns(uint256, uint256) {\r\n    // Jacobian multiplication\r\n    (uint256 x1, uint256 y1, uint256 z1) = jacMul(_k, _x, _y, 1, _aa, _pp);\r\n    // Get back to affine\r\n    return toAffine(x1, y1, z1, _pp);\r\n  }\r\n\r\n\r\n  function jacAdd(uint256 _x1, uint256 _y1, uint256 _z1, uint256 _x2, uint256 _y2, uint256 _z2, uint256 _pp) internal pure returns (uint256, uint256, uint256) {\r\n    if (_x1==0 && _y1==0)\r\n      return (_x2, _y2, _z2);\r\n    if (_x2==0 && _y2==0)\r\n      return (_x1, _y1, _z1);\r\n\r\n    // We follow the equations described in https://pdfs.semanticscholar.org/5c64/29952e08025a9649c2b0ba32518e9a7fb5c2.pdf Section 5\r\n    uint[4] memory zs; // z1^2, z1^3, z2^2, z2^3\r\n    zs[0] = mulmod(_z1, _z1, _pp);\r\n    zs[1] = mulmod(_z1, zs[0], _pp);\r\n    zs[2] = mulmod(_z2, _z2, _pp);\r\n    zs[3] = mulmod(_z2, zs[2], _pp);\r\n\r\n    // u1, s1, u2, s2\r\n    zs = [\r\n      mulmod(_x1, zs[2], _pp),\r\n      mulmod(_y1, zs[3], _pp),\r\n      mulmod(_x2, zs[0], _pp),\r\n      mulmod(_y2, zs[1], _pp)\r\n    ];\r\n\r\n    // In case of zs[0] == zs[2] && zs[1] == zs[3], double function should be used\r\n    require(zs[0] != zs[2] || zs[1] != zs[3], \"Use jacDouble function instead\");\r\n\r\n    uint[4] memory hr;\r\n    //h\r\n    hr[0] = addmod(zs[2], _pp - zs[0], _pp);\r\n    //r\r\n    hr[1] = addmod(zs[3], _pp - zs[1], _pp);\r\n    //h^2\r\n    hr[2] = mulmod(hr[0], hr[0], _pp);\r\n    // h^3\r\n    hr[3] = mulmod(hr[2], hr[0], _pp);\r\n    // qx = -h^3  -2u1h^2+r^2\r\n    uint256 qx = addmod(mulmod(hr[1], hr[1], _pp), _pp - hr[3], _pp);\r\n    qx = addmod(qx, _pp - mulmod(2, mulmod(zs[0], hr[2], _pp), _pp), _pp);\r\n    // qy = -s1*z1*h^3+r(u1*h^2 -x^3)\r\n    uint256 qy = mulmod(hr[1], addmod(mulmod(zs[0], hr[2], _pp), _pp - qx, _pp), _pp);\r\n    qy = addmod(qy, _pp - mulmod(zs[1], hr[3], _pp), _pp);\r\n    // qz = h*z1*z2\r\n    uint256 qz = mulmod(hr[0], mulmod(_z1, _z2, _pp), _pp);\r\n    return(qx, qy, qz);\r\n  }\r\n\r\n\r\n  function jacDouble(uint256 _x, uint256 _y, uint256 _z, uint256 _aa, uint256 _pp) internal pure returns (uint256, uint256, uint256) {\r\n    if (_z == 0)\r\n      return (_x, _y, _z);\r\n\r\n    // We follow the equations described in https://pdfs.semanticscholar.org/5c64/29952e08025a9649c2b0ba32518e9a7fb5c2.pdf Section 5\r\n    // Note: there is a bug in the paper regarding the m parameter, M=3*(x1^2)+a*(z1^4)\r\n    // x, y, z at this point represent the squares of _x, _y, _z\r\n    uint256 x = mulmod(_x, _x, _pp); //x1^2\r\n    uint256 y = mulmod(_y, _y, _pp); //y1^2\r\n    uint256 z = mulmod(_z, _z, _pp); //z1^2\r\n\r\n    // s\r\n    uint s = mulmod(4, mulmod(_x, y, _pp), _pp);\r\n    // m\r\n    uint m = addmod(mulmod(3, x, _pp), mulmod(_aa, mulmod(z, z, _pp), _pp), _pp);\r\n\r\n    // x, y, z at this point will be reassigned and rather represent qx, qy, qz from the paper\r\n    // This allows to reduce the gas cost and stack footprint of the algorithm\r\n    // qx\r\n    x = addmod(mulmod(m, m, _pp), _pp - addmod(s, s, _pp), _pp);\r\n    // qy = -8*y1^4 + M(S-T)\r\n    y = addmod(mulmod(m, addmod(s, _pp - x, _pp), _pp), _pp - mulmod(8, mulmod(y, y, _pp), _pp), _pp);\r\n    // qz = 2*y1*z1\r\n    z = mulmod(2, mulmod(_y, _z, _pp), _pp);\r\n\r\n    return (x, y, z);\r\n  }\r\n\r\n  function jacMul(uint256 _d, uint256 _x, uint256 _y, uint256 _z, uint256 _aa, uint256 _pp) internal pure returns (uint256, uint256, uint256) {\r\n    // Early return in case that `_d == 0`\r\n    if (_d == 0) {\r\n      return (_x, _y, _z);\r\n    }\r\n\r\n    uint256 remaining = _d;\r\n    uint256 qx = 0;\r\n    uint256 qy = 0;\r\n    uint256 qz = 1;\r\n\r\n    // Double and add algorithm\r\n    while (remaining != 0) {\r\n      if ((remaining & 1) != 0) {\r\n        (qx, qy, qz) = jacAdd(qx, qy, qz, _x, _y, _z, _pp);\r\n      }\r\n      remaining = remaining / 2;\r\n      (_x, _y, _z) = jacDouble(_x, _y, _z, _aa, _pp);\r\n    }\r\n    return (qx, qy, qz);\r\n  }\r\n\r\n}\r\n\r\nlibrary CommonStructs {\r\n    struct Point {\r\n    uint256 x;\r\n    uint256 y;\r\n  }\r\n}\r\n\r\ncontract MultiSig {\r\n\r\n    uint256 public constant GX = 0x79BE667EF9DCBBAC55A06295CE870B07029BFCDB2DCE28D959F2815B16F81798;\r\n    uint256 public constant GY = 0x483ADA7726A3C4655DA4FBFC0E1108A8FD17B448A68554199C47D08FFB10D4B8;\r\n    uint256 public constant AA = 0;\r\n    uint256 public constant BB = 7;\r\n    uint256 public constant PP = 0xFFFFFFFFFFFFFFFFFFFFFFFFFFFFFFFFFFFFFFFFFFFFFFFFFFFFFFFEFFFFFC2F;\r\n    uint256 public constant QQ = 0xFFFFFFFFFFFFFFFFFFFFFFFFFFFFFFFEBAAEDCE6AF48A03BBFD25E8CD0364141;\r\n    uint public counter = 0;\r\n    mapping (address => uint256) private accounts;\r\n\t\r\n\treceive () payable external{ }\r\n\t\r\n\tfunction pay (address from, uint amount, address to, uint256 pkx, uint256 pky, uint256 xx, uint xy, uint256 z, uint256 message) public{\r\n \t\r\n\t//pk and xbar are expected to be points. A point is a struct with two uint256 types, see what I'm getting from server\r\n\t//m is expected to be bytes. Check to see what I'm getting from server. See if I can change it to bytes\r\n    bytes memory m = abi.encodePacked(message);\r\n            if (verify(z, CommonStructs.Point(pkx, pky), CommonStructs.Point(xx, xy), m)){\r\n                payable(to).transfer(amount);\r\n                accounts[from] -= amount;\r\n                accounts[to] += amount;\r\n            }\r\n\t\t\r\n    }\r\n\t//This is taken right from schnorr.sol\r\n\tfunction verify(uint256 zBar, CommonStructs.Point memory pkBar, CommonStructs.Point memory xBar, bytes memory message) public returns (bool) {\r\n  (uint256 actual_x, uint256 actual_y) = EllipticCurve.ecMul(zBar, GX, GY, AA, PP);\r\n\r\n  // uint256 c = uint256(keccak256(bytes.concat(bytes32(pkBarSum.x), bytes32(pkBarSum.y), bytes32(xBarSum.x), bytes32(xBarSum.y), bytes32(message))));\r\n  uint c = uint(keccak256(abi.encodePacked(pkBar.x, pkBar.y, xBar.x, xBar.y, message)));\r\n\r\n  // return c;\r\n  (uint256 mul_x, uint256 mul_y) = EllipticCurve.ecMul(c, pkBar.x, pkBar.y, AA, PP);\r\n  (uint256 expected_x, uint256 expected_y) = EllipticCurve.ecAdd(mul_x, mul_y, xBar.x, xBar.y, AA, PP);\r\n\r\n  // return actual_y;\r\n  if (actual_y == expected_y) {\r\n      counter++;\r\n      return true;\r\n  }\r\n  if (actual_x == expected_x) {\r\n    counter++;\r\n    return true;\r\n  }\r\n\r\n  return false; \r\n}\r\n\t\r\n    \r\n}",
  "sourcePath": "C:\\Projects\\Multi_Sig_Payment_Sys_For_Etherium\\contracts\\MultiSig.sol",
  "compiler": {
    "name": "solc",
    "version": "0.8.21+commit.d9974bed.Emscripten.clang"
  },
  "schemaVersion": "3.4.16",
  "updatedAt": "2024-03-31T08:46:00.104Z",
  "devdoc": {
    "kind": "dev",
    "methods": {},
    "version": 1
  },
  "userdoc": {
    "kind": "user",
    "methods": {},
    "version": 1
  }
}